:03000000020003F8
:0C000300787FE4F6D8FD75811302004AF6
:1001A300EF1FAC0670011E4C600A7D027CEFDCFE83
:0401B300DDFC80EC03
:0101B7002225
:1000FC00E4F51320B0137F14FE1201A330B0FD7F82
:10010C00147E001201A375130120B1147F147E001C
:10011C001201A330B1FD7F147E001201A3751302EE
:10012C0020B2147F147E001201A330B2FD7F147E26
:10013C00001201A375130320B3147F147E00120167
:10014C00A330B3FD7F147E001201A3751304AF130B
:01015C002280
:10015D00E4FDFC7F0112008F1200FC8F12E512608E
:10016D00F77F647E00120181E512FD7C007F011294
:04017D00008F80E48B
:0C01B8000A083F065B4F666D7D077F6FF5
:10008F00EF14B4080050549000A475F003A4C58376
:10009F0025F0C583730200BC0200C00200C8020035
:1000AF00CC0200D40200D80200E00200E4C2A28019
:1000BF0002D2A2C2A3C2A48022C2A28002D2A2D222
:1000CF00A3C2A48016C2A28002D2A2C2A3D2A480CD
:1000DF000AC2A28002D2A2D2A3D2A474082DF8E63B
:0D00EF00F5807F017E001201A3E4F5802260
:0501C500007FF7DFFEE2
:0101CA002212
:04018100AD07AC0614
:10018500E4FBFAED25E0FFEC33FEC3EB9FEA9E505E
:0D0195000CB2951201C50BBB00010A80E6FB
:0101A200223A
:10000F0002015DE493A3F8E493A34003F68001F2A9
:10001F0008DFF48029E493A3F85407240CC8C333F2
:10002F00C4540F4420C8834004F456800146F6DFC1
:10003F00E4800B01020408102040809001B8E47E98
:10004F00019360BCA3FF543F30E509541FFEE493B6
:10005F00A360010ECF54C025E060A840B8E493A37D
:10006F00FAE493A3F8E493A3C8C582C8CAC583CAA8
:10007F00F0A3C8C582C8CAC583CADFE9DEE780BE60
:0101C400003A
:00000001FF
