:030000000200B14A
:0C00B100787FE4F6D8FD75810B0200F8A2
:0A0192003F065B4F666D7D077F6F2F
:08019C00020A00000208000045
:10013D007492250BF5827401350AF583E493F590DD
:04014D007FE87E03C6
:10015100E4FDFCC3ED9FEC9E5015E4FBFA0BBB00E4
:0F016100010ABA03F8BBE8F50DBD00010C80E4FC
:01017000226C
:0300030002017186
:10017100C0E0C292C291D290C295C294D29320B2F1
:10018100080509E50970020508E5096402450880CA
:01019100E18C
:10000600D2B2D2A8D288D2AFD292C291C290C295B1
:10001600C294D293750A00750B0512013DE50B15C6
:100026000B7002150AC3E50A6480948050ECE4F56F
:100036000AF50BB29190019AE493F5907FF47E0154
:10004600120151050BE50B7002050AC39405E50A7A
:100056006480948040DDC292C291D290D295C294BF
:10006600C293750A00750B0512013DE50B150B7061
:1000760002150AC3E50A6480948050ECE4F50AF59B
:100086000BC3E50B9405E50A6480948040030200E7
:100096000EB29190019AE493F5907FF47E011201DD
:0B00A60051050BE50B70DA050A80D64F
:1000BD00020006E493A3F8E493A34003F68001F253
:1000CD0008DFF48029E493A3F85407240CC8C33344
:1000DD00C4540F4420C8834004F456800146F6DF13
:1000ED00E4800B010204081020408090019CE47E06
:1000FD00019360BCA3FF543F30E509541FFEE49308
:10010D00A360010ECF54C025E060A840B8E493A3CE
:10011D00FAE493A3F8E493A3C8C582C8CAC583CAF9
:10012D00F0A3C8C582C8CAC583CADFE9DEE780BEB1
:0101A400005A
:00000001FF
