:03000000020006F5
:0C000600787FE4F6D8FD75811202004DF1
:0F00B7000A083F065B4F666D7D077F6F011200E1
:0300030002009266
:10009200C0E0C0D00512E512D394094003751200E6
:0500A200D0D0D0E032D7
:1000A700D2AFD2A8D28874082512F8E6F59080F668
:100012000200A7E493A3F8E493A34003F68001F25D
:1000220008DFF48029E493A3F85407240CC8C333EF
:10003200C4540F4420C8834004F456800146F6DFBE
:10004200E4800B01020408102040809000B7E47E97
:10005200019360BCA3FF543F30E509541FFEE493B3
:10006200A360010ECF54C025E060A840B8E493A37A
:10007200FAE493A3F8E493A3C8C582C8CAC583CAA5
:10008200F0A3C8C582C8CAC583CADFE9DEE780BE5D
:0100C6000039
:00000001FF
