:0300000002015C9E
:0C015C00787FE4F6D8FD7581190200F9E7
:10014C0000FE00FD00FB00F700EF00DF00BF007FAA
:1000F900780A7C007D007BFF7A01794C7E007F10B5
:100109001200D3E4F508F509E50925E0240AF80801
:10011900E6F5A07FF47E011201380509E5097002B0
:0F0129000508C39408E5086480948040DB80C11A
:10013800EF4E600F7D027CEFDCFEDDFCEF1F70F000
:030148001E80ED29
:01014B002291
:10000300E709F608DFFA8046E709F208DFFA803EDF
:1000130088828C83E709F0A3DFFA8032E309F608CC
:10002300DFFA8078E309F208DFFA807088828C8334
:10003300E309F0A3DFFA806489828A83E0A3F608E8
:10004300DFFA805889828A83E0A3F208DFFA804CC2
:1000530080D280FA80C680D4806980F28033801099
:1000630080A680EA809A80A880DA80E280CA803302
:1000730089828A83ECFAE493A3C8C582C8CCC5837A
:10008300CCF0A3C8C582C8CCC583CCDFE9DEE7804A
:100093000D89828A83E493A3F608DFF9ECFAA9F0C9
:1000A300EDFB2289828A83ECFAE0A3C8C582C8CC1F
:1000B300C583CCF0A3C8C582C8CCC583CCDFEADE38
:1000C300E880DB89828A83E493A3F208DFF980CC9A
:1000D30088F0EF60010E4E60C388F0ED2402B40493
:1000E3000050B9F582EB2402B4040050AF2323453A
:0600F3008223900053730C
:00000001FF
