:10031200323032332D30352D30362054696D6572CE
:080322000020203A20203A00DF
:0903B900011A37011C36011B0872
:1001360012039612032AD2AFD2A8D2AAD288D28AA2
:100146007BFF7A0379127D027F011202B47BFF7A6C
:100156000379237D057F021202B4E51BFB7A007545
:100166000C027D057F021202F5E51CFB7A00750C78
:10017600027D087F021202F5E51AFB7A00750C0271
:090186007D0B7F021202F580D10D
:030003000203579E
:10035700C0E0C0D0051CE51CC3943C4003751C00DD
:05036700D0D0D0E0320F
:0300130002036C79
:10036C00C0E0C0D0051BE51BC394184003751B00EF
:05037C00D0D0D0E032FA
:03000B0002018F60
:04018F00C0E0C0D03C
:10019300758A18758CFC0519E51970020518C39446
:1001A300E8E51894034027751800751900051AE54A
:1001B3001A943C4019751A00051CE51C943C400E2A
:0E01C300751C00051BE51B94184003751B00FE
:0501D100D0D0D0E032A7
:10038100EF1FAC0670011E4C600A7D027CEFDCFEA3
:04039100DDFC80EC23
:010395002245
:0603AA00C2A18F80D2A267
:0803B0007F027EEFDEFEDFFCA0
:0103B8002222
:0A03C300C2A01203AAC2A20203B0F6
:1002D700CFCDCFCECCCE1200557C007D0A12005573
:0402E700ED2430FFD3
:0A02EB00D2A01203AAC2A20203B0BF
:10034100AE07BE0104ED148006BE0209ED243F4450
:0603510080FF1203C3222D
:100396007F381203C37F0C1203C37F061203C37F89
:0403A600010203C38A
:0A03CD00AC03120341AF040202EB7F
:0602B4008B088A09890A8B
:1002BA00120341E4FDAB08AA09A90A8D82758300DD
:0C02CA00120016FF60061202EB0D80E926
:0102D6002205
:0C0281007F0AEA24FFFDE434FFFC7E004D
:08028D008E0D8F0E8C0F8D10F9
:100295007F017E00E4FBEBC39510E50F6480F874E5
:0E02A5008098500AAC0DAD0E1200430B80E89D
:0102B3002228
:0402F5008A0A8B0BDB
:1002F900120341AA0CEAD39400400D120281AC0A00
:08030900AD0B1202D71A80EDC2
:0103110022C9
:1001D600120341C3EA64809480400B7F2B1202EB2A
:1001E6008A168B17800E7F2D1202EBC3E49BF51740
:1001F600E49AF516AA15EAD39400400D120281ACD2
:0902060016AD171202D71A80EDA3
:01020F0022CC
:040210008A1F8B2096
:10021400120341AA21EAD3940040297F10120283D9
:10022400AC1FAD20CFCDCFCECCCE120055EF540FA6
:10023400FEC3940AEE5004243080022437FF1202D5
:04024400EB1A80D160
:010248002293
:040249008A248B2553
:10024D00120341AA26EAD394004028EA24FFFDE4D4
:10025D0034FFFC7F027E0012028DAC24AD25CFCD84
:10026D00CFCECCCE120055EF54012430FF1202EB4D
:03027D001A80D212
:01028000225B
:10032A005389F0438901758A18758CFCC28DD28C69
:07033A00D2A9D2AFC2B92223
:030000000200AA51
:0C00AA00787FE4F6D8FD7581260200F195
:10001600BB010CE58229F582E5833AF583E022509F
:1000260006E92582F8E622BBFE06E92582F8E222E9
:0D003600E58229F582E5833AF583E4932203
:10004300EF8DF0A4A8F0CF8CF0A428CE8DF0A42ED1
:02005300FE228B
:10005500BC000BBE0029EF8DF084FFADF022E4CC8F
:10006500F875F008EF2FFFEE33FEEC33FCEE9DEC58
:10007500984005FCEE9DFE0FD5F0E9E4CEFD22ED9E
:10008500F8F5F0EE8420D21CFEADF075F008EF2FE8
:10009500FFED33FD4007985006D5F0F222C398FDD9
:0500A5000FD5F0EA2276
:1000B600020136E493A3F8E493A34003F68001F229
:1000C60008DFF48029E493A3F85407240CC8C3334B
:1000D600C4540F4420C8834004F456800146F6DF1A
:1000E600E4800B01020408102040809003B9E47EEE
:1000F600019360BCA3FF543F30E509541FFEE4930F
:10010600A360010ECF54C025E060A840B8E493A3D5
:10011600FAE493A3F8E493A3C8C582C8CAC583CA00
:10012600F0A3C8C582C8CAC583CADFE9DEE780BEB8
:0103C200003A
:00000001FF
