:03000000020003F8
:0C000300787FE4F6D8FD75811502004AF4
:0E00D7000C0800EF00DF00FE00FD00FB00F74C
:10008F00E4F514F515E4F514F515E51525E0240848
:10009F00F808E6F5907F0A7E001200C3E4F590059C
:1000AF0015E51570020514C39406E5146480948059
:0400BF0040D880D1D4
:1000C300EF4E600F7D027CEFDCFEDDFCEF1F70F076
:0300D3001E80ED9F
:0100D6002207
:10000F0002008FE493A3F8E493A34003F68001F278
:10001F0008DFF48029E493A3F85407240CC8C333F2
:10002F00C4540F4420C8834004F456800146F6DFC1
:10003F00E4800B01020408102040809000D7E47E7A
:10004F00019360BCA3FF543F30E509541FFEE493B6
:10005F00A360010ECF54C025E060A840B8E493A37D
:10006F00FAE493A3F8E493A3C8C582C8CAC583CAA8
:10007F00F0A3C8C582C8CAC583CADFE9DEE780BE60
:0100E500001A
:00000001FF
