:0300000002001EDD
:0C001E00787FE4F6D8FD758120020065B3
:1001B800021400000A093F065B4F666D7D077F6FDA
:1001C8000616000000000000011C000113000108D1
:0101D8000026
:10000300EF1FAA0670011E4A600BE4FDEDC3947D49
:0500130050EE0D80F726
:0100180022C5
:0600AA008B1D8A1E891F58
:1000B000752001E4FCAB1DAA1EA91F8C827583006C
:1000C00012018B2409F8E6F580BC04047F0180024C
:1000D0007F00BC02047E0180027E00EE4F6003437D
:1000E0008080E520F4F5907F017E0012000375907A
:0B00F000FFE52025E0F5200CBC06BA5F
:0100FB0022E2
:03001B0002014C93
:10014C00C0E0C0D0758D3C758BB00515E5157002FF
:10015C000514641445147022F514F5150508E5080A
:10016C00B43C177508000513E513B43C0D7513006A
:0F017C00051CE51CB41803751C00D0D0D0E03270
:0A01DA00751C0875130F75081E222E
:1000FC00758910758D3C758BB0D2AFD2ABD28E1288
:10010C0001DAE51C75F00A84F51BE51C75F00A8410
:10011C0085F01AE51375F00A84F519E51375F00AE4
:10012C008485F018E50875F00A84F517E50875F074
:10013C000A8485F0167B007A0079161200AA80C218
:10002A000200FCE493A3F8E493A34003F68001F2F0
:10003A0008DFF48029E493A3F85407240CC8C333D7
:10004A00C4540F4420C8834004F456800146F6DFA6
:10005A00E4800B01020408102040809001B8E47E7D
:10006A00019360BCA3FF543F30E509541FFEE4939B
:10007A00A360010ECF54C025E060A840B8E493A362
:10008A00FAE493A3F8E493A3C8C582C8CAC583CA8D
:10009A00F0A3C8C582C8CAC583CADFE9DEE780BE45
:0101D9000025
:10018B00BB010CE58229F582E5833AF583E0225029
:10019B0006E92582F8E622BBFE06E92582F8E22273
:0D01AB00E58229F582E5833AF583E493228D
:00000001FF
