:03000000020003F8
:0C000300787FE4F6D8FD75810A02004AFF
:0700C2000209FEFF01080026
:1000AB00D3EF9400EE9400400DE4FD0DBD7DFCEF0D
:0600BB001F70ED1E80EA3B
:0100C100221C
:10008F00850A82850983E508F07F147E001200AB94
:0C009F000508E508B480E9E4F50880E4F9
:10000F0002008FE493A3F8E493A34003F68001F278
:10001F0008DFF48029E493A3F85407240CC8C333F2
:10002F00C4540F4420C8834004F456800146F6DFC1
:10003F00E4800B01020408102040809000C2E47E8F
:10004F00019360BCA3FF543F30E509541FFEE493B6
:10005F00A360010ECF54C025E060A840B8E493A37D
:10006F00FAE493A3F8E493A3C8C582C8CAC583CAA8
:10007F00F0A3C8C582C8CAC583CADFE9DEE780BE60
:0100C9000036
:00000001FF
