:0B02BD003F065B4F666D7D077F6F0002
:0902C800010C000408000102030E
:0402A2007F017E005A
:1002A600D3EF9400EE9400400DE4FD0DBD7DFCEF10
:0602B6001F70ED1E80EA3E
:0102BC00221F
:100276007C01E4FB74082BF8E69002BD93F4FFF5CD
:1002860090EB7005EF547FF590ECF4F5B01202A2F6
:0B02960075B0FFEC25E0FC0BBB04D9A9
:0102A100223A
:1000D100EF75F0C4A4FFAEF0E48F118E10F50FF5AB
:1000E1000E7B107A27F9F8AD0FAC0E1202058F08BE
:1000F100AF11AE10AD0FAC0EE47B107A27F9F812F8
:100101000205AC00AD01AE02AF038F118E108D0F51
:100111008C0EE47BE87A03F9F81202058F09AF111E
:10012100AE10AD0FAC0EE47BE87A03F9F8120205CC
:10013100AC00AD01AE02AF038F118E108D0F8C0E8E
:10014100E47B64FAF9F81202058F0AAF11AE10AD23
:100151000FAC0EE47B64FAF9F8120205AC00AD01B4
:10016100AE02AF038F118E108D0F8C0EE47B0AFA55
:07017100F9F81202058F0BE3
:010178002264
:100249007580FFE4F5A0D2A6D2A0D2A1C2A2D2A500
:10025900C2A4D2A4C2A41202A2D2A31202A285806D
:0D0269000CC2A3AF0C1200D112027680E38C
:0300000002017981
:0C017900787FE4F6D8FD7581110201C00A
:10020500C2D5E830E70FB2D5E4C39BFBE49AFAE424
:1002150099F9E498F8EC30E717B2D512023B1200D1
:100225003FE4C39BFBE49AFAE499F9E498F8800368
:1002350012003F30D50DE4C39FFFE49EFEE49DFD13
:04024500E49CFC2217
:10018500020249E493A3F8E493A34003F68001F245
:1001950008DFF48029E493A3F85407240CC8C3337B
:1001A500C4540F4420C8834004F456800146F6DF4A
:1001B500E4800B01020408102040809002C8E47E10
:1001C500019360BCA3FF543F30E509541FFEE4933F
:1001D500A360010ECF54C025E060A840B8E493A306
:1001E500FAE493A3F8E493A3C8C582C8CAC583CA31
:1001F500F0A3C8C582C8CAC583CADFE9DEE780BEE9
:0102D100002C
:1000030075F008758200EF2FFFEE33FECD33CDCCB4
:1000130033CCC58233C5829BED9AEC99E582984037
:100023000CF582EE9BFEED9AFDEC99FC0FD5F0D614
:10003300E4CEFBE4CDFAE4CCF9A88222B800C1B93E
:100043000059BA002DEC8BF084CFCECDFCE5F0CB7C
:10005300F97818EF2FFFEE33FEED33FDEC33FCEBB5
:1000630033FB10D703994004EB99FB0FD8E5E4F970
:10007300FA227818EF2FFFEE33FEED33FDEC33FC5D
:10008300C933C910D7059BE99A4007EC9BFCE99A51
:10009300F90FD8E0E4C9FAE4CCFB2275F010EF2F96
:1000A300FFEE33FEED33FDCC33CCC833C810D70796
:1000B3009BEC9AE899400AED9BFDEC9AFCE899F8D1
:0E00C3000FD5F0DAE4CDFBE4CCFAE4C8F92264
:00000001FF
