:03000000020003F8
:0C000300787FE4F6D8FD75810E02004AFB
:10017900EF4E600F7D027CEFDCFEDDFCEF1F70F0BF
:030189001E80EDE8
:01018C002250
:10008F00750D00750E08AF0EE4FDFC12010CE50EA8
:10009F00150E7002150DC3E50E9401E50D648094E5
:1000AF008050E37D017C007F0112010C750D0075FE
:1000BF000E01AF0E7D027C0012010C050EE50E70D5
:1000CF0002050DD39408E50D6480948040E47D0310
:1000DF007C007F0812010C750D00750E08C3E50E2C
:1000EF009401E50D648094804096AF0E7D047C00F2
:0D00FF0012010CE50E150E70E4150D80E0E9
:07018D000508010240100803
:10010C00EF14B40800505490012175F003A4C5837A
:10011C0025F0C5837302013902013D02014502013C
:10012C004902015102015502015D020161C2A28026
:10013C0002D2A2C2A3C2A48022C2A28002D2A2D2A4
:10014C00A3C2A48016C2A28002D2A2C2A3D2A4804F
:10015C000AC2A28002D2A2D2A3D2A474082DF8E6BD
:0D016C00F5807F2C7E01120179E4F58022E0
:10000F0002008FE493A3F8E493A34003F68001F278
:10001F0008DFF48029E493A3F85407240CC8C333F2
:10002F00C4540F4420C8834004F456800146F6DFC1
:10003F00E4800B010204081020408090018DE47EC3
:10004F00019360BCA3FF543F30E509541FFEE493B6
:10005F00A360010ECF54C025E060A840B8E493A37D
:10006F00FAE493A3F8E493A3C8C582C8CAC583CAA8
:10007F00F0A3C8C582C8CAC583CADFE9DEE780BE60
:01019400006A
:00000001FF
