:03000000020003F8
:0C000300787FE4F6D8FD75811102004AF8
:0B0115007D067C007F0112008F80F54A
:0C0108000A083F065B4F666D7D077F6FA5
:10008F00EFB40800504D90009CF82828730200B47C
:10009F000200B80200C00200C40200CC0200D0026D
:1000AF0000D80200DCC2A28002D2A2C2A3C2A480E6
:1000BF0022C2A28002D2A2D2A3C2A48016C2A28060
:1000CF0002D2A2C2A3D2A4800AC2A28002D2A2D21A
:1000DF00A3D2A474082DF8E6F5807F017E001200EC
:0500EF00F4E4F580229D
:1000F400EF4E600F7D027CEFDCFEDDFCEF1F70F045
:030104001E80ED6D
:0101070022D5
:10000F00020115E493A3F8E493A34003F68001F2F1
:10001F0008DFF48029E493A3F85407240CC8C333F2
:10002F00C4540F4420C8834004F456800146F6DFC1
:10003F00E4800B0102040810204080900108E47E48
:10004F00019360BCA3FF543F30E509541FFEE493B6
:10005F00A360010ECF54C025E060A840B8E493A37D
:10006F00FAE493A3F8E493A3C8C582C8CAC583CAA8
:10007F00F0A3C8C582C8CAC583CADFE9DEE780BE60
:0101140000EA
:00000001FF
