:03000000020003F8
:0C000300787FE4F6D8FD75810A02004AFF
:1000F200E4FDFC7F011200007D017C007F02120002
:10010200007D017C007F031200007D017C007F04E2
:0E0112001200007D027C007F0512000080D2EA
:050134000308584975A5
:10008F00EF14B4080050549000A475F003A4C58376
:10009F0025F0C583730200BC0200C00200C8020035
:1000AF00CC0200D40200D80200E00200E4C2A28019
:1000BF0002D2A2C2A3C2A48022C2A28002D2A2D222
:1000CF00A3C2A48016C2A28002D2A2C2A3D2A480CD
:1000DF000AC2A28002D2A2D2A3D2A474082DF8E63B
:0300EF00F5802277
:10012000EF4E600F7D027CEFDCFEDDFCEF1F70F018
:030130001E80ED41
:0101330022A9
:10000F000200F2E493A3F8E493A34003F68001F215
:10001F0008DFF48029E493A3F85407240CC8C333F2
:10002F00C4540F4420C8834004F456800146F6DFC1
:10003F00E4800B0102040810204080900134E47E1C
:10004F00019360BCA3FF543F30E509541FFEE493B6
:10005F00A360010ECF54C025E060A840B8E493A37D
:10006F00FAE493A3F8E493A3C8C582C8CAC583CAA8
:10007F00F0A3C8C582C8CAC583CADFE9DEE780BE60
:0101390000C5
:00000001FF
