:03000000020003F8
:0C000300787FE4F6D8FD75811E02004AEB
:100144000B11323032332D30342D32310009083066
:08015400303A30303A3030003F
:1000C1001200F77B007A0079117F8312008F7B0089
:0B00D1007A0079087FC412008F80E8DD
:1000DC007DFAD3EF9400EE9400400FDDFE7DF9DD48
:0A00EC00FE7DFAEF1F70EB1E80E8A6
:0100F60022E7
:10017600C2A2C2A0D2A1D2A2AF80EF20E7F2C2A251
:010186002256
:10011200AE07120176C2A2C2A0C2A18E80D2A200F4
:09012200C2A27F017E000200DC94
:10012B00AE07120176C2A2D2A0C2A18E80D2A200CB
:09013B00C2A27F017E000200DC7B
:1000F7007F381201127F0C1201127F061201127F44
:0B010700011201127F017E000200DCEB
:10008F008B1C8A1D891E120112AB1CAA1DA91E12E0
:10009F00015DD39400401A051EE51E7002051D1464
:1000AF00F912015DFF12012B7F647E001200DC80CC
:0200BF00D82245
:10000F000200C1E493A3F8E493A34003F68001F246
:10001F0008DFF48029E493A3F85407240CC8C333F2
:10002F00C4540F4420C8834004F456800146F6DFC1
:10003F00E4800B0102040810204080900144E47E0C
:10004F00019360BCA3FF543F30E509541FFEE493B6
:10005F00A360010ECF54C025E060A840B8E493A37D
:10006F00FAE493A3F8E493A3C8C582C8CAC583CAA8
:10007F00F0A3C8C582C8CAC583CADFE9DEE780BE60
:01015C0000A2
:10015D00BB010689828A83E0225002E722BBFE02A0
:09016D00E32289828A83E49322D3
:00000001FF
