:0C0153000A08C0F9A4B0999282F88090CC
:10013E00EF1FAC0670011E4C600A7D027CEFDCFEE8
:04014E00DDFC80EC68
:01015200228A
:04008F007D027C0072
:10009300EF14B4080050449000A875F003A4C5837E
:1000A30025F0C583730200C00200C40200C8020029
:1000B300CC0200D00200D40200D80200DCD290802F
:1000C3001AD2918016D2928012D293800ED294804B
:1000D3000AD2958006D2968002D29774082DF8E64C
:0D00E300F5B07FE87E0312013E75B0FF22EC
:1000F0007F0112008F7FC87E0012013EE4FDFC7F6D
:10010000021200937FC87E0012013EE4FDFC7F03D3
:100110001200937D017C007F041200937D017C001E
:100120007F051200937F0612008F7D027C007F07FF
:0E0130001200937D097C007F0812009380B2BC
:03000000020003F8
:0C000300787FE4F6D8FD75811102004AF8
:10000F000200F0E493A3F8E493A34003F68001F217
:10001F0008DFF48029E493A3F85407240CC8C333F2
:10002F00C4540F4420C8834004F456800146F6DFC1
:10003F00E4800B0102040810204080900153E47EFD
:10004F00019360BCA3FF543F30E509541FFEE493B6
:10005F00A360010ECF54C025E060A840B8E493A37D
:10006F00FAE493A3F8E493A3C8C582C8CAC583CAA8
:10007F00F0A3C8C582C8CAC583CADFE9DEE780BE60
:01015F00009F
:00000001FF
