:0C012E000A083F065B4F666D7D077F6F7F
:10011900EF1FAC0670011E4C600A7D027CEFDCFE0D
:04012900DDFC80EC8D
:01012D0022AF
:10008F00EFB40A00505590009CF82828730200BA6C
:10009F000200BF0200C40200C90200CE0200D30258
:1000AF0000D80200DD0200E20200E7850890802BF5
:1000BF008509908026850A908021850B90801C856C
:1000CF000C908017850D908012850E90800D850FF6
:1000DF00908008851090800385119074082DF8E6A4
:0D00EF00F5B07F017E00120119E4F5B0228A
:1000FC007D017C007F0112008F7D027C007F02124B
:0D010C00008F7D037C007F0312008F80E3D5
:03000000020003F8
:0C000300787FE4F6D8FD75811102004AF8
:10000F000200FCE493A3F8E493A34003F68001F20B
:10001F0008DFF48029E493A3F85407240CC8C333F2
:10002F00C4540F4420C8834004F456800146F6DFC1
:10003F00E4800B010204081020408090012EE47E22
:10004F00019360BCA3FF543F30E509541FFEE493B6
:10005F00A360010ECF54C025E060A840B8E493A37D
:10006F00FAE493A3F8E493A3C8C582C8CAC583CAA8
:10007F00F0A3C8C582C8CAC583CADFE9DEE780BE60
:01013A0000C4
:00000001FF
