:0300000002001EDD
:0C001E00787FE4F6D8FD75810A020065C9
:0700D700020900000108010D
:03001B000200AA36
:1000AA00C0E0C0D0050AE50A70020509B4C407E534
:1000BA0009B40902B290E50AB4100DE509B427089B
:0D00CA00B290750900750A00D0D0D0E03268
:10000300D290758920758B38758D38D2AFD2ABD22B
:030013008E80FEDE
:10002A00020003E493A3F8E493A34003F68001F2E9
:10003A0008DFF48029E493A3F85407240CC8C333D7
:10004A00C4540F4420C8834004F456800146F6DFA6
:10005A00E4800B01020408102040809000D7E47E5F
:10006A00019360BCA3FF543F30E509541FFEE4939B
:10007A00A360010ECF54C025E060A840B8E493A362
:10008A00FAE493A3F8E493A3C8C582C8CAC583CA8D
:10009A00F0A3C8C582C8CAC583CADFE9DEE780BE45
:0100DE000021
:00000001FF
