:0300000002009665
:0C009600787FE4F6D8FD758108020003B5
:0A007D00EF1FAC0670011E4C600E70
:0E008700E4F508E508C3947D50EC050880F50B
:010095002248
:1000630075B0FFAFB0EFF460107F0F7E0012007D1C
:09007300AFB0EFF460036307FF76
:01007C002261
:10000300120063EF24FE602124FE602224FC60239F
:1000130024F8602424F0602524E0602624C06031A5
:10002300247F70DC7590AA801C759055801775909D
:10003300FC80127590F3800D7590CF800875903F0A
:1000430080037590C37FE87E0312007D7590FF8067
:10005300AF75903C7FE87E0312007D7590FF80A012
:00000001FF
