:0D03D8001200037525008F268526B080F3E6
:1003A000EF1FAC0670011E4C600A7D027CEFDCFE84
:0403B000DDFC80EC04
:0103B4002226
:0603C900C2A58F80D2A73F
:0803CF007F027EEFDEFEDFFC81
:0103D7002203
:0A03F100C2A61203C9C2A70203CF7F
:10034F00CFCDCFCECCCE1201F97C007D0A1201F9B0
:04035F00ED2430FF5A
:0A036300D2A61203C9C2A70203CFFD
:10038A00AE07BE0104ED148006BE0209ED243F4407
:06039A0080FF1203F122B6
:1003B5007F381203F17F0C1203F17F061203F17FE0
:0403C500010203F13D
:0A03FB00AC0312038AAF040203638F
:06032C008B228A238924C4
:1003320012038AE4FDAB22AA23A9248D82758300CD
:0C0342001201BAFF60061203630D80E98F
:01034E00228C
:0C02F9007F0AEA24FFFDE434FFFC7E00D5
:080305008E1E8F1F8C208D213C
:10030D007F017E00E4FBEBC39521E5206480F8744A
:0E031D008098500AAC1EAD1F1201E70B80E85D
:01032B0022AF
:04036D008A118B1254
:1003710012038AAA13EAD39400400D1202F9AC11B8
:08038100AD1212034F1A80EDCA
:010389002251
:10024E0012038AC3EA64809480400B7F2B120363EF
:10025E008A0D8B0E800E7F2D120363C3E49BF50E69
:10026E00E49AF50DAA0CEAD39400400D1202F9ACF3
:09027E000DAD0E12034F1A80EDC4
:010287002254
:040288008A168B1730
:10028C0012038AAA18EAD3940040297F101202FBA9
:10029C00AC16AD17CFCDCFCECCCE1201F9EF540F9B
:1002AC00FEC3940AEE5004243080022437FF12035C
:0402BC00631A80D170
:0102C000221B
:0402C1008A1B8B1CED
:1002C50012038AAA1DEAD394004028EA24FFFDE41C
:1002D50034FFFC7F027E00120305AC1BAD1CCFCDA5
:1002E500CFCECCCE1201F9EF54012430FF120363B7
:0302F5001A80D29A
:0102F80022E3
:100003007590FFC2932097177F147E001203A030D0
:1000130097FD7F147E001203A075270075288820A2
:1000230096177F147E001203A03096FD7F147E0086
:100033001203A07527007528842095177F147E006E
:100043001203A03095FD7F147E001203A0752700D4
:100053007528662094177F147E001203A03094FD48
:100063007F147E001203A07527007528817590FF09
:10007300C2922097177F147E001203A03097FD7F52
:10008300147E001203A07527007528722096177F2F
:10009300147E001203A03096FD7F147E001203A08D
:1000A3007527007528682095177F147E001203A01A
:1000B3003095FD7F147E001203A075270075286616
:1000C3002094177F147E001203A03094FD7F147ECA
:1000D300001203A07527007528657590FFC2912053
:1000E30097177F147E001203A03097FD7F147E00C4
:1000F3001203A07527007528282096177F147E0009
:100103001203A03096FD7F147E001203A075270012
:100113007528242095177F147E001203A03095FDC7
:100123007F147E001203A0752700752822209417E0
:100133007F147E001203A03094FD7F147E0012030F
:10014300A07527007528217590FFC2902097177F0F
:10015300147E001203A03097FD7F147E001203A0CB
:100163007527007528242096177F147E001203A09C
:100173003096FD7F147E001203A0752700752814A6
:100183002095177F147E001203A03095FD7F147E07
:10019300001203A07527007528122094177F147E80
:1001A300001203A03094FD7F147E001203A0752774
:0601B30000752811AF28C1
:0101B9002223
:030000000203E513
:0C03E500787FE4F6D8FD7581280203D86B
:1001BA00BB010CE58229F582E5833AF583E02250FA
:1001CA0006E92582F8E622BBFE06E92582F8E22244
:0D01DA00E58229F582E5833AF583E493225E
:1001E700EF8DF0A4A8F0CF8CF0A428CE8DF0A42E2C
:0201F700FE22E6
:1001F900BC000BBE0029EF8DF084FFADF022E4CCEA
:10020900F875F008EF2FFFEE33FEEC33FCEE9DECB2
:10021900984005FCEE9DFE0FD5F0E9E4CEFD22EDF8
:10022900F8F5F0EE8420D21CFEADF075F008EF2F42
:10023900FFED33FD4007985006D5F0F222C398FD33
:050249000FD5F0EA22D0
:00000001FF
